{
  "_format": "hh-sol-artifact-1",
  "contractName": "Marketplace",
  "sourceName": "src/backend/contracts/Marketplace.sol",
  "abi": [
    {
      "inputs": [
        {
          "internalType": "uint256",
          "name": "_feePercent",
          "type": "uint256"
        }
      ],
      "stateMutability": "nonpayable",
      "type": "constructor"
    },
    {
      "anonymous": false,
      "inputs": [
        {
          "indexed": false,
          "internalType": "uint256",
          "name": "itemId",
          "type": "uint256"
        },
        {
          "indexed": true,
          "internalType": "address",
          "name": "nft",
          "type": "address"
        },
        {
          "indexed": false,
          "internalType": "uint256",
          "name": "tokenId",
          "type": "uint256"
        },
        {
          "indexed": false,
          "internalType": "uint256",
          "name": "price",
          "type": "uint256"
        },
        {
          "indexed": true,
          "internalType": "address",
          "name": "seller",
          "type": "address"
        },
        {
          "indexed": true,
          "internalType": "address",
          "name": "buyer",
          "type": "address"
        }
      ],
      "name": "Bought",
      "type": "event"
    },
    {
      "anonymous": false,
      "inputs": [
        {
          "indexed": false,
          "internalType": "uint256",
          "name": "itemId",
          "type": "uint256"
        },
        {
          "indexed": true,
          "internalType": "address",
          "name": "nft",
          "type": "address"
        },
        {
          "indexed": false,
          "internalType": "uint256",
          "name": "tokenId",
          "type": "uint256"
        },
        {
          "indexed": false,
          "internalType": "uint256",
          "name": "price",
          "type": "uint256"
        },
        {
          "indexed": true,
          "internalType": "address",
          "name": "seller",
          "type": "address"
        }
      ],
      "name": "Offered",
      "type": "event"
    },
    {
      "anonymous": false,
      "inputs": [
        {
          "indexed": false,
          "internalType": "uint256",
          "name": "itemId",
          "type": "uint256"
        },
        {
          "indexed": true,
          "internalType": "address",
          "name": "seller",
          "type": "address"
        },
        {
          "indexed": false,
          "internalType": "uint256",
          "name": "newPrice",
          "type": "uint256"
        }
      ],
      "name": "Relisted",
      "type": "event"
    },
    {
      "anonymous": false,
      "inputs": [
        {
          "indexed": false,
          "internalType": "uint256",
          "name": "tokenId",
          "type": "uint256"
        },
        {
          "indexed": false,
          "internalType": "uint256",
          "name": "itemId",
          "type": "uint256"
        }
      ],
      "name": "Test",
      "type": "event"
    },
    {
      "stateMutability": "payable",
      "type": "fallback"
    },
    {
      "inputs": [],
      "name": "feeAccount",
      "outputs": [
        {
          "internalType": "address payable",
          "name": "",
          "type": "address"
        }
      ],
      "stateMutability": "view",
      "type": "function"
    },
    {
      "inputs": [],
      "name": "feePercent",
      "outputs": [
        {
          "internalType": "uint256",
          "name": "",
          "type": "uint256"
        }
      ],
      "stateMutability": "view",
      "type": "function"
    },
    {
      "inputs": [
        {
          "internalType": "uint256",
          "name": "_itemId",
          "type": "uint256"
        }
      ],
      "name": "getTotalPrice",
      "outputs": [
        {
          "internalType": "uint256",
          "name": "",
          "type": "uint256"
        }
      ],
      "stateMutability": "view",
      "type": "function"
    },
    {
      "inputs": [
        {
          "internalType": "uint256",
          "name": "_itemID",
          "type": "uint256"
        }
      ],
      "name": "isItemSold",
      "outputs": [
        {
          "internalType": "bool",
          "name": "",
          "type": "bool"
        }
      ],
      "stateMutability": "view",
      "type": "function"
    },
    {
      "inputs": [],
      "name": "itemCount",
      "outputs": [
        {
          "internalType": "uint256",
          "name": "",
          "type": "uint256"
        }
      ],
      "stateMutability": "view",
      "type": "function"
    },
    {
      "inputs": [
        {
          "internalType": "uint256",
          "name": "",
          "type": "uint256"
        }
      ],
      "name": "items",
      "outputs": [
        {
          "internalType": "uint256",
          "name": "itemId",
          "type": "uint256"
        },
        {
          "internalType": "contract IERC721",
          "name": "nft",
          "type": "address"
        },
        {
          "internalType": "uint256",
          "name": "tokenId",
          "type": "uint256"
        },
        {
          "internalType": "uint256",
          "name": "price",
          "type": "uint256"
        },
        {
          "internalType": "address payable",
          "name": "seller",
          "type": "address"
        },
        {
          "internalType": "bool",
          "name": "sold",
          "type": "bool"
        }
      ],
      "stateMutability": "view",
      "type": "function"
    },
    {
      "inputs": [
        {
          "internalType": "contract IERC721",
          "name": "_nft",
          "type": "address"
        },
        {
          "internalType": "uint256",
          "name": "_tokenId",
          "type": "uint256"
        },
        {
          "internalType": "uint256",
          "name": "_price",
          "type": "uint256"
        }
      ],
      "name": "makeItem",
      "outputs": [],
      "stateMutability": "nonpayable",
      "type": "function"
    },
    {
      "inputs": [
        {
          "internalType": "uint256",
          "name": "_itemId",
          "type": "uint256"
        }
      ],
      "name": "purchaseItem",
      "outputs": [],
      "stateMutability": "payable",
      "type": "function"
    },
    {
      "inputs": [
        {
          "internalType": "contract IERC721",
          "name": "_nft",
          "type": "address"
        },
        {
          "internalType": "uint256",
          "name": "_itemId",
          "type": "uint256"
        },
        {
          "internalType": "uint256",
          "name": "_tokenId",
          "type": "uint256"
        },
        {
          "internalType": "uint256",
          "name": "_newPrice",
          "type": "uint256"
        }
      ],
      "name": "relistItem",
      "outputs": [],
      "stateMutability": "nonpayable",
      "type": "function"
    },
    {
      "stateMutability": "payable",
      "type": "receive"
    }
  ],
  "bytecode": "0x60c06040523480156200001157600080fd5b5060405162001b0438038062001b0483398181016040528101906200003791906200009c565b60016000819055503373ffffffffffffffffffffffffffffffffffffffff1660808173ffffffffffffffffffffffffffffffffffffffff1660601b815250508060a0818152505050620000ec565b6000815190506200009681620000d2565b92915050565b600060208284031215620000af57600080fd5b6000620000bf8482850162000085565b91505092915050565b6000819050919050565b620000dd81620000c8565b8114620000e957600080fd5b50565b60805160601c60a0516119e1620001236000396000818161059b015261064c015260008181610571015261082c01526119e16000f3fe60806040526004361061008a5760003560e01c8063bfb231d211610059578063bfb231d21461013d578063ca7dd3751461017f578063d38ea5bf146101bc578063f852e0c8146101d8578063fa00afc71461021557610091565b806317f5295e1461009357806365e17c9d146100bc5780636bfb0d01146100e75780637fd6f15c1461011257610091565b3661009157005b005b34801561009f57600080fd5b506100ba60048036038101906100b591906110b7565b61023e565b005b3480156100c857600080fd5b506100d161056f565b6040516100de91906112c9565b60405180910390f35b3480156100f357600080fd5b506100fc610593565b604051610109919061147f565b60405180910390f35b34801561011e57600080fd5b50610127610599565b604051610134919061147f565b60405180910390f35b34801561014957600080fd5b50610164600480360381019061015f919061111a565b6105bd565b6040516101769695949392919061149a565b60405180910390f35b34801561018b57600080fd5b506101a660048036038101906101a1919061111a565b610646565b6040516101b3919061147f565b60405180910390f35b6101d660048036038101906101d1919061111a565b6106a9565b005b3480156101e457600080fd5b506101ff60048036038101906101fa919061111a565b610a31565b60405161020c9190611344565b60405180910390f35b34801561022157600080fd5b5061023c60048036038101906102379190611068565b610a5e565b005b610246610f68565b60008311801561025857506001548311155b610297576040517f08c379a000000000000000000000000000000000000000000000000000000000815260040161028e906113ff565b60405180910390fd5b60006002600085815260200190815260200160002090503373ffffffffffffffffffffffffffffffffffffffff168573ffffffffffffffffffffffffffffffffffffffff16636352211e856040518263ffffffff1660e01b81526004016102fe919061147f565b60206040518083038186803b15801561031657600080fd5b505afa15801561032a573d6000803e3d6000fd5b505050506040513d601f19601f8201168201806040525081019061034e9190611016565b73ffffffffffffffffffffffffffffffffffffffff16146103a4576040517f08c379a000000000000000000000000000000000000000000000000000000000815260040161039b9061143f565b60405180910390fd5b8060040160149054906101000a900460ff166103f5576040517f08c379a00000000000000000000000000000000000000000000000000000000081526004016103ec9061139f565b60405180910390fd5b60008211610438576040517f08c379a000000000000000000000000000000000000000000000000000000000815260040161042f9061137f565b60405180910390fd5b338160040160006101000a81548173ffffffffffffffffffffffffffffffffffffffff021916908373ffffffffffffffffffffffffffffffffffffffff16021790555081816003018190555060008160040160146101000a81548160ff0219169083151502179055508473ffffffffffffffffffffffffffffffffffffffff166323b872dd3330866040518463ffffffff1660e01b81526004016104de9392919061130d565b600060405180830381600087803b1580156104f857600080fd5b505af115801561050c573d6000803e3d6000fd5b505050503373ffffffffffffffffffffffffffffffffffffffff167f850f1b55e0aa4abb2785d4c2a91c319d11ca3cc4d9b9750e23d6c90a5037274285846040516105589291906114fb565b60405180910390a250610569610fb8565b50505050565b7f000000000000000000000000000000000000000000000000000000000000000081565b60015481565b7f000000000000000000000000000000000000000000000000000000000000000081565b60026020528060005260406000206000915090508060000154908060010160009054906101000a900473ffffffffffffffffffffffffffffffffffffffff16908060020154908060030154908060040160009054906101000a900473ffffffffffffffffffffffffffffffffffffffff16908060040160149054906101000a900460ff16905086565b600060647f00000000000000000000000000000000000000000000000000000000000000006064610677919061156c565b600260008581526020019081526020016000206003015461069891906115f3565b6106a291906115c2565b9050919050565b6106b1610f68565b60006106bc82610646565b905060006002600084815260200190815260200160002090506000831180156106e757506001548311155b610726576040517f08c379a000000000000000000000000000000000000000000000000000000000815260040161071d906113df565b60405180910390fd5b81341015610769576040517f08c379a0000000000000000000000000000000000000000000000000000000008152600401610760906113bf565b60405180910390fd5b8060040160149054906101000a900460ff16156107bb576040517f08c379a00000000000000000000000000000000000000000000000000000000081526004016107b29061135f565b60405180910390fd5b8060040160009054906101000a900473ffffffffffffffffffffffffffffffffffffffff1673ffffffffffffffffffffffffffffffffffffffff166108fc82600301549081150290604051600060405180830381858888f19350505050158015610829573d6000803e3d6000fd5b507f000000000000000000000000000000000000000000000000000000000000000073ffffffffffffffffffffffffffffffffffffffff166108fc826003015484610874919061164d565b9081150290604051600060405180830381858888f1935050505015801561089f573d6000803e3d6000fd5b5060018160040160146101000a81548160ff0219169083151502179055508060010160009054906101000a900473ffffffffffffffffffffffffffffffffffffffff1673ffffffffffffffffffffffffffffffffffffffff166323b872dd303384600201546040518463ffffffff1660e01b81526004016109229392919061130d565b600060405180830381600087803b15801561093c57600080fd5b505af1158015610950573d6000803e3d6000fd5b505050503373ffffffffffffffffffffffffffffffffffffffff168160040160009054906101000a900473ffffffffffffffffffffffffffffffffffffffff1673ffffffffffffffffffffffffffffffffffffffff168260010160009054906101000a900473ffffffffffffffffffffffffffffffffffffffff1673ffffffffffffffffffffffffffffffffffffffff167f8b4c9c8a607d67b321582dd8461041b1dc2ceeca70c8b7f37f8e02095cf2e76d8685600201548660030154604051610a1c93929190611524565b60405180910390a45050610a2e610fb8565b50565b60006002600083815260200190815260200160002060040160149054906101000a900460ff169050919050565b610a66610f68565b3373ffffffffffffffffffffffffffffffffffffffff168373ffffffffffffffffffffffffffffffffffffffff16636352211e846040518263ffffffff1660e01b8152600401610ab6919061147f565b60206040518083038186803b158015610ace57600080fd5b505afa158015610ae2573d6000803e3d6000fd5b505050506040513d601f19601f82011682018060405250810190610b069190611016565b73ffffffffffffffffffffffffffffffffffffffff1614610b5c576040517f08c379a0000000000000000000000000000000000000000000000000000000008152600401610b539061143f565b60405180910390fd5b8273ffffffffffffffffffffffffffffffffffffffff1663e985e9c533306040518363ffffffff1660e01b8152600401610b979291906112e4565b60206040518083038186803b158015610baf57600080fd5b505afa158015610bc3573d6000803e3d6000fd5b505050506040513d601f19601f82011682018060405250810190610be7919061103f565b80610ca557503073ffffffffffffffffffffffffffffffffffffffff168373ffffffffffffffffffffffffffffffffffffffff1663081812fc846040518263ffffffff1660e01b8152600401610c3d919061147f565b60206040518083038186803b158015610c5557600080fd5b505afa158015610c69573d6000803e3d6000fd5b505050506040513d601f19601f82011682018060405250810190610c8d9190611016565b73ffffffffffffffffffffffffffffffffffffffff16145b610ce4576040517f08c379a0000000000000000000000000000000000000000000000000000000008152600401610cdb9061141f565b60405180910390fd5b60008111610d27576040517f08c379a0000000000000000000000000000000000000000000000000000000008152600401610d1e9061137f565b60405180910390fd5b60016000815480929190610d3a90611711565b91905055508273ffffffffffffffffffffffffffffffffffffffff166323b872dd3330856040518463ffffffff1660e01b8152600401610d7c9392919061130d565b600060405180830381600087803b158015610d9657600080fd5b505af1158015610daa573d6000803e3d6000fd5b505050506040518060c0016040528060015481526020018473ffffffffffffffffffffffffffffffffffffffff1681526020018381526020018281526020013373ffffffffffffffffffffffffffffffffffffffff168152602001600015158152506002600060015481526020019081526020016000206000820151816000015560208201518160010160006101000a81548173ffffffffffffffffffffffffffffffffffffffff021916908373ffffffffffffffffffffffffffffffffffffffff160217905550604082015181600201556060820151816003015560808201518160040160006101000a81548173ffffffffffffffffffffffffffffffffffffffff021916908373ffffffffffffffffffffffffffffffffffffffff16021790555060a08201518160040160146101000a81548160ff0219169083151502179055509050503373ffffffffffffffffffffffffffffffffffffffff168373ffffffffffffffffffffffffffffffffffffffff167f655a0cf9c8db81512be9a76dc1c5ae5380b8816ce6ad659cd61b715e2999d59a6001548585604051610f5393929190611524565b60405180910390a3610f63610fb8565b505050565b60026000541415610fae576040517f08c379a0000000000000000000000000000000000000000000000000000000008152600401610fa59061145f565b60405180910390fd5b6002600081905550565b6001600081905550565b600081519050610fd18161194f565b92915050565b600081519050610fe681611966565b92915050565b600081359050610ffb8161197d565b92915050565b60008135905061101081611994565b92915050565b60006020828403121561102857600080fd5b600061103684828501610fc2565b91505092915050565b60006020828403121561105157600080fd5b600061105f84828501610fd7565b91505092915050565b60008060006060848603121561107d57600080fd5b600061108b86828701610fec565b935050602061109c86828701611001565b92505060406110ad86828701611001565b9150509250925092565b600080600080608085870312156110cd57600080fd5b60006110db87828801610fec565b94505060206110ec87828801611001565b93505060406110fd87828801611001565b925050606061110e87828801611001565b91505092959194509250565b60006020828403121561112c57600080fd5b600061113a84828501611001565b91505092915050565b61114c81611693565b82525050565b61115b81611681565b82525050565b61116a816116a5565b82525050565b611179816116ed565b82525050565b600061118c60118361155b565b9150611197826117b8565b602082019050919050565b60006111af601f8361155b565b91506111ba826117e1565b602082019050919050565b60006111d260108361155b565b91506111dd8261180a565b602082019050919050565b60006111f560338361155b565b915061120082611833565b604082019050919050565b600061121860128361155b565b915061122382611882565b602082019050919050565b600061123b60128361155b565b9150611246826118ab565b602082019050919050565b600061125e601c8361155b565b9150611269826118d4565b602082019050919050565b600061128160138361155b565b915061128c826118fd565b602082019050919050565b60006112a4601f8361155b565b91506112af82611926565b602082019050919050565b6112c3816116e3565b82525050565b60006020820190506112de6000830184611143565b92915050565b60006040820190506112f96000830185611152565b6113066020830184611152565b9392505050565b60006060820190506113226000830186611152565b61132f6020830185611152565b61133c60408301846112ba565b949350505050565b60006020820190506113596000830184611161565b92915050565b600060208201905081810360008301526113788161117f565b9050919050565b60006020820190508181036000830152611398816111a2565b9050919050565b600060208201905081810360008301526113b8816111c5565b9050919050565b600060208201905081810360008301526113d8816111e8565b9050919050565b600060208201905081810360008301526113f88161120b565b9050919050565b600060208201905081810360008301526114188161122e565b9050919050565b6000602082019050818103600083015261143881611251565b9050919050565b6000602082019050818103600083015261145881611274565b9050919050565b6000602082019050818103600083015261147881611297565b9050919050565b600060208201905061149460008301846112ba565b92915050565b600060c0820190506114af60008301896112ba565b6114bc6020830188611170565b6114c960408301876112ba565b6114d660608301866112ba565b6114e36080830185611143565b6114f060a0830184611161565b979650505050505050565b600060408201905061151060008301856112ba565b61151d60208301846112ba565b9392505050565b600060608201905061153960008301866112ba565b61154660208301856112ba565b61155360408301846112ba565b949350505050565b600082825260208201905092915050565b6000611577826116e3565b9150611582836116e3565b9250827fffffffffffffffffffffffffffffffffffffffffffffffffffffffffffffffff038211156115b7576115b661175a565b5b828201905092915050565b60006115cd826116e3565b91506115d8836116e3565b9250826115e8576115e7611789565b5b828204905092915050565b60006115fe826116e3565b9150611609836116e3565b9250817fffffffffffffffffffffffffffffffffffffffffffffffffffffffffffffffff04831182151516156116425761164161175a565b5b828202905092915050565b6000611658826116e3565b9150611663836116e3565b9250828210156116765761167561175a565b5b828203905092915050565b600061168c826116c3565b9050919050565b600061169e826116c3565b9050919050565b60008115159050919050565b60006116bc82611681565b9050919050565b600073ffffffffffffffffffffffffffffffffffffffff82169050919050565b6000819050919050565b60006116f8826116ff565b9050919050565b600061170a826116c3565b9050919050565b600061171c826116e3565b91507fffffffffffffffffffffffffffffffffffffffffffffffffffffffffffffffff82141561174f5761174e61175a565b5b600182019050919050565b7f4e487b7100000000000000000000000000000000000000000000000000000000600052601160045260246000fd5b7f4e487b7100000000000000000000000000000000000000000000000000000000600052601260045260246000fd5b7f6974656d20616c726561647920736f6c64000000000000000000000000000000600082015250565b7f5072696365206d7573742062652067726561746572207468616e207a65726f00600082015250565b7f4974656d206973206e6f7420736f6c6400000000000000000000000000000000600082015250565b7f6e6f7420656e6f75676820657468657220746f20636f766572206974656d207060008201527f7269636520616e64206d61726b65742066656500000000000000000000000000602082015250565b7f6974656d20646f65736e27742065786973740000000000000000000000000000600082015250565b7f4974656d20646f65736e27742065786973740000000000000000000000000000600082015250565b7f6e6f7420617070726f76656420666f72206d61726b6574706c61636500000000600082015250565b7f6e6f742074686520746f6b656e206f776e657200000000000000000000000000600082015250565b7f5265656e7472616e637947756172643a207265656e7472616e742063616c6c00600082015250565b61195881611681565b811461196357600080fd5b50565b61196f816116a5565b811461197a57600080fd5b50565b611986816116b1565b811461199157600080fd5b50565b61199d816116e3565b81146119a857600080fd5b5056fea264697066735822122029848636e8ce2a12c93bf3faa70bf4274aa5cf4ea8fc224de3302d91d44408fa64736f6c63430008040033",
  "linkReferences": {},
  "deployedLinkReferences": {}
}