{
  "_format": "hh-sol-artifact-1",
  "contractName": "NFT",
  "sourceName": "src/backend/contracts/NFT.sol",
  "abi": [
    {
      "inputs": [],
      "stateMutability": "nonpayable",
      "type": "constructor"
    },
    {
      "anonymous": false,
      "inputs": [
        {
          "indexed": true,
          "internalType": "address",
          "name": "owner",
          "type": "address"
        },
        {
          "indexed": true,
          "internalType": "address",
          "name": "approved",
          "type": "address"
        },
        {
          "indexed": true,
          "internalType": "uint256",
          "name": "tokenId",
          "type": "uint256"
        }
      ],
      "name": "Approval",
      "type": "event"
    },
    {
      "anonymous": false,
      "inputs": [
        {
          "indexed": true,
          "internalType": "address",
          "name": "owner",
          "type": "address"
        },
        {
          "indexed": true,
          "internalType": "address",
          "name": "operator",
          "type": "address"
        },
        {
          "indexed": false,
          "internalType": "bool",
          "name": "approved",
          "type": "bool"
        }
      ],
      "name": "ApprovalForAll",
      "type": "event"
    },
    {
      "anonymous": false,
      "inputs": [
        {
          "indexed": true,
          "internalType": "address",
          "name": "from",
          "type": "address"
        },
        {
          "indexed": true,
          "internalType": "address",
          "name": "to",
          "type": "address"
        },
        {
          "indexed": true,
          "internalType": "uint256",
          "name": "tokenId",
          "type": "uint256"
        }
      ],
      "name": "Transfer",
      "type": "event"
    },
    {
      "inputs": [
        {
          "internalType": "address",
          "name": "to",
          "type": "address"
        },
        {
          "internalType": "uint256",
          "name": "tokenId",
          "type": "uint256"
        }
      ],
      "name": "approve",
      "outputs": [],
      "stateMutability": "nonpayable",
      "type": "function"
    },
    {
      "inputs": [
        {
          "internalType": "address",
          "name": "owner",
          "type": "address"
        }
      ],
      "name": "balanceOf",
      "outputs": [
        {
          "internalType": "uint256",
          "name": "",
          "type": "uint256"
        }
      ],
      "stateMutability": "view",
      "type": "function"
    },
    {
      "inputs": [
        {
          "internalType": "uint256",
          "name": "tokenId",
          "type": "uint256"
        }
      ],
      "name": "getApproved",
      "outputs": [
        {
          "internalType": "address",
          "name": "",
          "type": "address"
        }
      ],
      "stateMutability": "view",
      "type": "function"
    },
    {
      "inputs": [
        {
          "internalType": "uint256",
          "name": "tokenId",
          "type": "uint256"
        }
      ],
      "name": "getOwner",
      "outputs": [
        {
          "internalType": "address",
          "name": "",
          "type": "address"
        }
      ],
      "stateMutability": "view",
      "type": "function"
    },
    {
      "inputs": [
        {
          "internalType": "address",
          "name": "owner",
          "type": "address"
        },
        {
          "internalType": "address",
          "name": "operator",
          "type": "address"
        }
      ],
      "name": "isApprovedForAll",
      "outputs": [
        {
          "internalType": "bool",
          "name": "",
          "type": "bool"
        }
      ],
      "stateMutability": "view",
      "type": "function"
    },
    {
      "inputs": [
        {
          "internalType": "string",
          "name": "_tokenURI",
          "type": "string"
        }
      ],
      "name": "mint",
      "outputs": [
        {
          "internalType": "uint256",
          "name": "",
          "type": "uint256"
        }
      ],
      "stateMutability": "nonpayable",
      "type": "function"
    },
    {
      "inputs": [],
      "name": "name",
      "outputs": [
        {
          "internalType": "string",
          "name": "",
          "type": "string"
        }
      ],
      "stateMutability": "view",
      "type": "function"
    },
    {
      "inputs": [
        {
          "internalType": "uint256",
          "name": "tokenId",
          "type": "uint256"
        }
      ],
      "name": "ownerOf",
      "outputs": [
        {
          "internalType": "address",
          "name": "",
          "type": "address"
        }
      ],
      "stateMutability": "view",
      "type": "function"
    },
    {
      "inputs": [
        {
          "internalType": "address",
          "name": "from",
          "type": "address"
        },
        {
          "internalType": "address",
          "name": "to",
          "type": "address"
        },
        {
          "internalType": "uint256",
          "name": "tokenId",
          "type": "uint256"
        }
      ],
      "name": "safeTransferFrom",
      "outputs": [],
      "stateMutability": "nonpayable",
      "type": "function"
    },
    {
      "inputs": [
        {
          "internalType": "address",
          "name": "from",
          "type": "address"
        },
        {
          "internalType": "address",
          "name": "to",
          "type": "address"
        },
        {
          "internalType": "uint256",
          "name": "tokenId",
          "type": "uint256"
        },
        {
          "internalType": "bytes",
          "name": "data",
          "type": "bytes"
        }
      ],
      "name": "safeTransferFrom",
      "outputs": [],
      "stateMutability": "nonpayable",
      "type": "function"
    },
    {
      "inputs": [
        {
          "internalType": "address",
          "name": "operator",
          "type": "address"
        },
        {
          "internalType": "bool",
          "name": "approved",
          "type": "bool"
        }
      ],
      "name": "setApprovalForAll",
      "outputs": [],
      "stateMutability": "nonpayable",
      "type": "function"
    },
    {
      "inputs": [
        {
          "internalType": "bytes4",
          "name": "interfaceId",
          "type": "bytes4"
        }
      ],
      "name": "supportsInterface",
      "outputs": [
        {
          "internalType": "bool",
          "name": "",
          "type": "bool"
        }
      ],
      "stateMutability": "view",
      "type": "function"
    },
    {
      "inputs": [],
      "name": "symbol",
      "outputs": [
        {
          "internalType": "string",
          "name": "",
          "type": "string"
        }
      ],
      "stateMutability": "view",
      "type": "function"
    },
    {
      "inputs": [],
      "name": "tokenCount",
      "outputs": [
        {
          "internalType": "uint256",
          "name": "",
          "type": "uint256"
        }
      ],
      "stateMutability": "view",
      "type": "function"
    },
    {
      "inputs": [
        {
          "internalType": "uint256",
          "name": "tokenId",
          "type": "uint256"
        }
      ],
      "name": "tokenURI",
      "outputs": [
        {
          "internalType": "string",
          "name": "",
          "type": "string"
        }
      ],
      "stateMutability": "view",
      "type": "function"
    },
    {
      "inputs": [
        {
          "internalType": "address",
          "name": "from",
          "type": "address"
        },
        {
          "internalType": "address",
          "name": "to",
          "type": "address"
        },
        {
          "internalType": "uint256",
          "name": "tokenId",
          "type": "uint256"
        }
      ],
      "name": "transferFrom",
      "outputs": [],
      "stateMutability": "nonpayable",
      "type": "function"
    }
  ],
  "bytecode": "0x60806040523480156200001157600080fd5b506040518060400160405280600881526020017f44417070204e46540000000000000000000000000000000000000000000000008152506040518060400160405280600481526020017f4441505000000000000000000000000000000000000000000000000000000000815250816000908051906020019062000096929190620000b8565b508060019080519060200190620000af929190620000b8565b505050620001cd565b828054620000c69062000168565b90600052602060002090601f016020900481019282620000ea576000855562000136565b82601f106200010557805160ff191683800117855562000136565b8280016001018555821562000136579182015b828111156200013557825182559160200191906001019062000118565b5b50905062000145919062000149565b5090565b5b80821115620001645760008160009055506001016200014a565b5090565b600060028204905060018216806200018157607f821691505b602082108114156200019857620001976200019e565b5b50919050565b7f4e487b7100000000000000000000000000000000000000000000000000000000600052602260045260246000fd5b612a8680620001dd6000396000f3fe608060405234801561001057600080fd5b50600436106101005760003560e01c806395d89b4111610097578063c41a360a11610066578063c41a360a146102ab578063c87b56dd146102db578063d85d3d271461030b578063e985e9c51461033b57610100565b806395d89b41146102375780639f181b5e14610255578063a22cb46514610273578063b88d4fde1461028f57610100565b806323b872dd116100d357806323b872dd1461019f57806342842e0e146101bb5780636352211e146101d757806370a082311461020757610100565b806301ffc9a71461010557806306fdde0314610135578063081812fc14610153578063095ea7b314610183575b600080fd5b61011f600480360381019061011a9190611e7b565b61036b565b60405161012c9190612236565b60405180910390f35b61013d61044d565b60405161014a9190612251565b60405180910390f35b61016d60048036038101906101689190611f0e565b6104df565b60405161017a91906121cf565b60405180910390f35b61019d60048036038101906101989190611e3f565b610525565b005b6101b960048036038101906101b49190611d39565b61063d565b005b6101d560048036038101906101d09190611d39565b61069d565b005b6101f160048036038101906101ec9190611f0e565b6106bd565b6040516101fe91906121cf565b60405180910390f35b610221600480360381019061021c9190611cd4565b610744565b60405161022e91906123f3565b60405180910390f35b61023f6107fc565b60405161024c9190612251565b60405180910390f35b61025d61088e565b60405161026a91906123f3565b60405180910390f35b61028d60048036038101906102889190611e03565b610894565b005b6102a960048036038101906102a49190611d88565b6108aa565b005b6102c560048036038101906102c09190611f0e565b61090c565b6040516102d291906121cf565b60405180910390f35b6102f560048036038101906102f09190611f0e565b61091e565b6040516103029190612251565b60405180910390f35b61032560048036038101906103209190611ecd565b610a31565b60405161033291906123f3565b60405180910390f35b61035560048036038101906103509190611cfd565b610a6d565b6040516103629190612236565b60405180910390f35b60007f80ac58cd000000000000000000000000000000000000000000000000000000007bffffffffffffffffffffffffffffffffffffffffffffffffffffffff1916827bffffffffffffffffffffffffffffffffffffffffffffffffffffffff1916148061043657507f5b5e139f000000000000000000000000000000000000000000000000000000007bffffffffffffffffffffffffffffffffffffffffffffffffffffffff1916827bffffffffffffffffffffffffffffffffffffffffffffffffffffffff1916145b80610446575061044582610b01565b5b9050919050565b60606000805461045c9061258e565b80601f01602080910402602001604051908101604052809291908181526020018280546104889061258e565b80156104d55780601f106104aa576101008083540402835291602001916104d5565b820191906000526020600020905b8154815290600101906020018083116104b857829003601f168201915b5050505050905090565b60006104ea82610b6b565b6004600083815260200190815260200160002060009054906101000a900473ffffffffffffffffffffffffffffffffffffffff169050919050565b6000610530826106bd565b90508073ffffffffffffffffffffffffffffffffffffffff168373ffffffffffffffffffffffffffffffffffffffff1614156105a1576040517f08c379a0000000000000000000000000000000000000000000000000000000008152600401610598906123b3565b60405180910390fd5b8073ffffffffffffffffffffffffffffffffffffffff166105c0610bb6565b73ffffffffffffffffffffffffffffffffffffffff1614806105ef57506105ee816105e9610bb6565b610a6d565b5b61062e576040517f08c379a0000000000000000000000000000000000000000000000000000000008152600401610625906123d3565b60405180910390fd5b6106388383610bbe565b505050565b61064e610648610bb6565b82610c77565b61068d576040517f08c379a000000000000000000000000000000000000000000000000000000000815260040161068490612273565b60405180910390fd5b610698838383610d0c565b505050565b6106b8838383604051806020016040528060008152506108aa565b505050565b6000806106c983611006565b9050600073ffffffffffffffffffffffffffffffffffffffff168173ffffffffffffffffffffffffffffffffffffffff16141561073b576040517f08c379a000000000000000000000000000000000000000000000000000000000815260040161073290612393565b60405180910390fd5b80915050919050565b60008073ffffffffffffffffffffffffffffffffffffffff168273ffffffffffffffffffffffffffffffffffffffff1614156107b5576040517f08c379a00000000000000000000000000000000000000000000000000000000081526004016107ac90612333565b60405180910390fd5b600360008373ffffffffffffffffffffffffffffffffffffffff1673ffffffffffffffffffffffffffffffffffffffff168152602001908152602001600020549050919050565b60606001805461080b9061258e565b80601f01602080910402602001604051908101604052809291908181526020018280546108379061258e565b80156108845780601f1061085957610100808354040283529160200191610884565b820191906000526020600020905b81548152906001019060200180831161086757829003601f168201915b5050505050905090565b60075481565b6108a661089f610bb6565b8383611043565b5050565b6108bb6108b5610bb6565b83610c77565b6108fa576040517f08c379a00000000000000000000000000000000000000000000000000000000081526004016108f190612273565b60405180910390fd5b610906848484846111b0565b50505050565b6000610917826106bd565b9050919050565b606061092982610b6b565b60006006600084815260200190815260200160002080546109499061258e565b80601f01602080910402602001604051908101604052809291908181526020018280546109759061258e565b80156109c25780601f10610997576101008083540402835291602001916109c2565b820191906000526020600020905b8154815290600101906020018083116109a557829003601f168201915b5050505050905060006109d361120c565b90506000815114156109e9578192505050610a2c565b600082511115610a1e578082604051602001610a069291906121ab565b60405160208183030381529060405292505050610a2c565b610a2784611223565b925050505b919050565b600060076000815480929190610a46906125f1565b9190505550610a573360075461128b565b610a63600754836112a9565b6007549050919050565b6000600560008473ffffffffffffffffffffffffffffffffffffffff1673ffffffffffffffffffffffffffffffffffffffff16815260200190815260200160002060008373ffffffffffffffffffffffffffffffffffffffff1673ffffffffffffffffffffffffffffffffffffffff16815260200190815260200160002060009054906101000a900460ff16905092915050565b60007f01ffc9a7000000000000000000000000000000000000000000000000000000007bffffffffffffffffffffffffffffffffffffffffffffffffffffffff1916827bffffffffffffffffffffffffffffffffffffffffffffffffffffffff1916149050919050565b610b748161131d565b610bb3576040517f08c379a0000000000000000000000000000000000000000000000000000000008152600401610baa90612393565b60405180910390fd5b50565b600033905090565b816004600083815260200190815260200160002060006101000a81548173ffffffffffffffffffffffffffffffffffffffff021916908373ffffffffffffffffffffffffffffffffffffffff160217905550808273ffffffffffffffffffffffffffffffffffffffff16610c31836106bd565b73ffffffffffffffffffffffffffffffffffffffff167f8c5be1e5ebec7d5bd14f71427d1e84f3dd0314c0f7b2291e5b200ac8c7c3b92560405160405180910390a45050565b600080610c83836106bd565b90508073ffffffffffffffffffffffffffffffffffffffff168473ffffffffffffffffffffffffffffffffffffffff161480610cc55750610cc48185610a6d565b5b80610d0357508373ffffffffffffffffffffffffffffffffffffffff16610ceb846104df565b73ffffffffffffffffffffffffffffffffffffffff16145b91505092915050565b8273ffffffffffffffffffffffffffffffffffffffff16610d2c826106bd565b73ffffffffffffffffffffffffffffffffffffffff1614610d82576040517f08c379a0000000000000000000000000000000000000000000000000000000008152600401610d79906122b3565b60405180910390fd5b600073ffffffffffffffffffffffffffffffffffffffff168273ffffffffffffffffffffffffffffffffffffffff161415610df2576040517f08c379a0000000000000000000000000000000000000000000000000000000008152600401610de9906122f3565b60405180910390fd5b610dff838383600161135e565b8273ffffffffffffffffffffffffffffffffffffffff16610e1f826106bd565b73ffffffffffffffffffffffffffffffffffffffff1614610e75576040517f08c379a0000000000000000000000000000000000000000000000000000000008152600401610e6c906122b3565b60405180910390fd5b6004600082815260200190815260200160002060006101000a81549073ffffffffffffffffffffffffffffffffffffffff02191690556001600360008573ffffffffffffffffffffffffffffffffffffffff1673ffffffffffffffffffffffffffffffffffffffff168152602001908152602001600020600082825403925050819055506001600360008473ffffffffffffffffffffffffffffffffffffffff1673ffffffffffffffffffffffffffffffffffffffff16815260200190815260200160002060008282540192505081905550816002600083815260200190815260200160002060006101000a81548173ffffffffffffffffffffffffffffffffffffffff021916908373ffffffffffffffffffffffffffffffffffffffff160217905550808273ffffffffffffffffffffffffffffffffffffffff168473ffffffffffffffffffffffffffffffffffffffff167fddf252ad1be2c89b69c2b068fc378daa952ba7f163c4a11628f55a4df523b3ef60405160405180910390a46110018383836001611364565b505050565b60006002600083815260200190815260200160002060009054906101000a900473ffffffffffffffffffffffffffffffffffffffff169050919050565b8173ffffffffffffffffffffffffffffffffffffffff168373ffffffffffffffffffffffffffffffffffffffff1614156110b2576040517f08c379a00000000000000000000000000000000000000000000000000000000081526004016110a990612313565b60405180910390fd5b80600560008573ffffffffffffffffffffffffffffffffffffffff1673ffffffffffffffffffffffffffffffffffffffff16815260200190815260200160002060008473ffffffffffffffffffffffffffffffffffffffff1673ffffffffffffffffffffffffffffffffffffffff16815260200190815260200160002060006101000a81548160ff0219169083151502179055508173ffffffffffffffffffffffffffffffffffffffff168373ffffffffffffffffffffffffffffffffffffffff167f17307eab39ab6107e8899845ad3d59bd9653f200f220920489ca2b5937696c31836040516111a39190612236565b60405180910390a3505050565b6111bb848484610d0c565b6111c78484848461136a565b611206576040517f08c379a00000000000000000000000000000000000000000000000000000000081526004016111fd90612293565b60405180910390fd5b50505050565b606060405180602001604052806000815250905090565b606061122e82610b6b565b600061123861120c565b905060008151116112585760405180602001604052806000815250611283565b8061126284611501565b6040516020016112739291906121ab565b6040516020818303038152906040525b915050919050565b6112a5828260405180602001604052806000815250611625565b5050565b6112b28261131d565b6112f1576040517f08c379a00000000000000000000000000000000000000000000000000000000081526004016112e890612353565b60405180910390fd5b80600660008481526020019081526020016000209080519060200190611318929190611af8565b505050565b60008073ffffffffffffffffffffffffffffffffffffffff1661133f83611006565b73ffffffffffffffffffffffffffffffffffffffff1614159050919050565b50505050565b50505050565b600061138b8473ffffffffffffffffffffffffffffffffffffffff16611680565b156114f4578373ffffffffffffffffffffffffffffffffffffffff1663150b7a026113b4610bb6565b8786866040518563ffffffff1660e01b81526004016113d694939291906121ea565b602060405180830381600087803b1580156113f057600080fd5b505af192505050801561142157506040513d601f19601f8201168201806040525081019061141e9190611ea4565b60015b6114a4573d8060008114611451576040519150601f19603f3d011682016040523d82523d6000602084013e611456565b606091505b5060008151141561149c576040517f08c379a000000000000000000000000000000000000000000000000000000000815260040161149390612293565b60405180910390fd5b805181602001fd5b63150b7a0260e01b7bffffffffffffffffffffffffffffffffffffffffffffffffffffffff1916817bffffffffffffffffffffffffffffffffffffffffffffffffffffffff1916149150506114f9565b600190505b949350505050565b606060006001611510846116a3565b01905060008167ffffffffffffffff811115611555577f4e487b7100000000000000000000000000000000000000000000000000000000600052604160045260246000fd5b6040519080825280601f01601f1916602001820160405280156115875781602001600182028036833780820191505090505b509050600082602001820190505b60011561161a578080600190039150507f3031323334353637383961626364656600000000000000000000000000000000600a86061a8153600a8581611604577f4e487b7100000000000000000000000000000000000000000000000000000000600052601260045260246000fd5b04945060008514156116155761161a565b611595565b819350505050919050565b61162f83836118da565b61163c600084848461136a565b61167b576040517f08c379a000000000000000000000000000000000000000000000000000000000815260040161167290612293565b60405180910390fd5b505050565b6000808273ffffffffffffffffffffffffffffffffffffffff163b119050919050565b600080600090507a184f03e93ff9f4daa797ed6e38ed64bf6a1f0100000000000000008310611727577a184f03e93ff9f4daa797ed6e38ed64bf6a1f010000000000000000838161171d577f4e487b7100000000000000000000000000000000000000000000000000000000600052601260045260246000fd5b0492506040810190505b6d04ee2d6d415b85acef8100000000831061178a576d04ee2d6d415b85acef81000000008381611780577f4e487b7100000000000000000000000000000000000000000000000000000000600052601260045260246000fd5b0492506020810190505b662386f26fc1000083106117df57662386f26fc1000083816117d5577f4e487b7100000000000000000000000000000000000000000000000000000000600052601260045260246000fd5b0492506010810190505b6305f5e100831061182e576305f5e1008381611824577f4e487b7100000000000000000000000000000000000000000000000000000000600052601260045260246000fd5b0492506008810190505b612710831061187957612710838161186f577f4e487b7100000000000000000000000000000000000000000000000000000000600052601260045260246000fd5b0492506004810190505b606483106118c257606483816118b8577f4e487b7100000000000000000000000000000000000000000000000000000000600052601260045260246000fd5b0492506002810190505b600a83106118d1576001810190505b80915050919050565b600073ffffffffffffffffffffffffffffffffffffffff168273ffffffffffffffffffffffffffffffffffffffff16141561194a576040517f08c379a000000000000000000000000000000000000000000000000000000000815260040161194190612373565b60405180910390fd5b6119538161131d565b15611993576040517f08c379a000000000000000000000000000000000000000000000000000000000815260040161198a906122d3565b60405180910390fd5b6119a160008383600161135e565b6119aa8161131d565b156119ea576040517f08c379a00000000000000000000000000000000000000000000000000000000081526004016119e1906122d3565b60405180910390fd5b6001600360008473ffffffffffffffffffffffffffffffffffffffff1673ffffffffffffffffffffffffffffffffffffffff16815260200190815260200160002060008282540192505081905550816002600083815260200190815260200160002060006101000a81548173ffffffffffffffffffffffffffffffffffffffff021916908373ffffffffffffffffffffffffffffffffffffffff160217905550808273ffffffffffffffffffffffffffffffffffffffff16600073ffffffffffffffffffffffffffffffffffffffff167fddf252ad1be2c89b69c2b068fc378daa952ba7f163c4a11628f55a4df523b3ef60405160405180910390a4611af4600083836001611364565b5050565b828054611b049061258e565b90600052602060002090601f016020900481019282611b265760008555611b6d565b82601f10611b3f57805160ff1916838001178555611b6d565b82800160010185558215611b6d579182015b82811115611b6c578251825591602001919060010190611b51565b5b509050611b7a9190611b7e565b5090565b5b80821115611b97576000816000905550600101611b7f565b5090565b6000611bae611ba984612433565b61240e565b905082815260208101848484011115611bc657600080fd5b611bd184828561254c565b509392505050565b6000611bec611be784612464565b61240e565b905082815260208101848484011115611c0457600080fd5b611c0f84828561254c565b509392505050565b600081359050611c26816129f4565b92915050565b600081359050611c3b81612a0b565b92915050565b600081359050611c5081612a22565b92915050565b600081519050611c6581612a22565b92915050565b600082601f830112611c7c57600080fd5b8135611c8c848260208601611b9b565b91505092915050565b600082601f830112611ca657600080fd5b8135611cb6848260208601611bd9565b91505092915050565b600081359050611cce81612a39565b92915050565b600060208284031215611ce657600080fd5b6000611cf484828501611c17565b91505092915050565b60008060408385031215611d1057600080fd5b6000611d1e85828601611c17565b9250506020611d2f85828601611c17565b9150509250929050565b600080600060608486031215611d4e57600080fd5b6000611d5c86828701611c17565b9350506020611d6d86828701611c17565b9250506040611d7e86828701611cbf565b9150509250925092565b60008060008060808587031215611d9e57600080fd5b6000611dac87828801611c17565b9450506020611dbd87828801611c17565b9350506040611dce87828801611cbf565b925050606085013567ffffffffffffffff811115611deb57600080fd5b611df787828801611c6b565b91505092959194509250565b60008060408385031215611e1657600080fd5b6000611e2485828601611c17565b9250506020611e3585828601611c2c565b9150509250929050565b60008060408385031215611e5257600080fd5b6000611e6085828601611c17565b9250506020611e7185828601611cbf565b9150509250929050565b600060208284031215611e8d57600080fd5b6000611e9b84828501611c41565b91505092915050565b600060208284031215611eb657600080fd5b6000611ec484828501611c56565b91505092915050565b600060208284031215611edf57600080fd5b600082013567ffffffffffffffff811115611ef957600080fd5b611f0584828501611c95565b91505092915050565b600060208284031215611f2057600080fd5b6000611f2e84828501611cbf565b91505092915050565b611f40816124d8565b82525050565b611f4f816124ea565b82525050565b6000611f6082612495565b611f6a81856124ab565b9350611f7a81856020860161255b565b611f83816126c7565b840191505092915050565b6000611f99826124a0565b611fa381856124bc565b9350611fb381856020860161255b565b611fbc816126c7565b840191505092915050565b6000611fd2826124a0565b611fdc81856124cd565b9350611fec81856020860161255b565b80840191505092915050565b6000612005602d836124bc565b9150612010826126d8565b604082019050919050565b60006120286032836124bc565b915061203382612727565b604082019050919050565b600061204b6025836124bc565b915061205682612776565b604082019050919050565b600061206e601c836124bc565b9150612079826127c5565b602082019050919050565b60006120916024836124bc565b915061209c826127ee565b604082019050919050565b60006120b46019836124bc565b91506120bf8261283d565b602082019050919050565b60006120d76029836124bc565b91506120e282612866565b604082019050919050565b60006120fa602e836124bc565b9150612105826128b5565b604082019050919050565b600061211d6020836124bc565b915061212882612904565b602082019050919050565b60006121406018836124bc565b915061214b8261292d565b602082019050919050565b60006121636021836124bc565b915061216e82612956565b604082019050919050565b6000612186603d836124bc565b9150612191826129a5565b604082019050919050565b6121a581612542565b82525050565b60006121b78285611fc7565b91506121c38284611fc7565b91508190509392505050565b60006020820190506121e46000830184611f37565b92915050565b60006080820190506121ff6000830187611f37565b61220c6020830186611f37565b612219604083018561219c565b818103606083015261222b8184611f55565b905095945050505050565b600060208201905061224b6000830184611f46565b92915050565b6000602082019050818103600083015261226b8184611f8e565b905092915050565b6000602082019050818103600083015261228c81611ff8565b9050919050565b600060208201905081810360008301526122ac8161201b565b9050919050565b600060208201905081810360008301526122cc8161203e565b9050919050565b600060208201905081810360008301526122ec81612061565b9050919050565b6000602082019050818103600083015261230c81612084565b9050919050565b6000602082019050818103600083015261232c816120a7565b9050919050565b6000602082019050818103600083015261234c816120ca565b9050919050565b6000602082019050818103600083015261236c816120ed565b9050919050565b6000602082019050818103600083015261238c81612110565b9050919050565b600060208201905081810360008301526123ac81612133565b9050919050565b600060208201905081810360008301526123cc81612156565b9050919050565b600060208201905081810360008301526123ec81612179565b9050919050565b6000602082019050612408600083018461219c565b92915050565b6000612418612429565b905061242482826125c0565b919050565b6000604051905090565b600067ffffffffffffffff82111561244e5761244d612698565b5b612457826126c7565b9050602081019050919050565b600067ffffffffffffffff82111561247f5761247e612698565b5b612488826126c7565b9050602081019050919050565b600081519050919050565b600081519050919050565b600082825260208201905092915050565b600082825260208201905092915050565b600081905092915050565b60006124e382612522565b9050919050565b60008115159050919050565b60007fffffffff0000000000000000000000000000000000000000000000000000000082169050919050565b600073ffffffffffffffffffffffffffffffffffffffff82169050919050565b6000819050919050565b82818337600083830152505050565b60005b8381101561257957808201518184015260208101905061255e565b83811115612588576000848401525b50505050565b600060028204905060018216806125a657607f821691505b602082108114156125ba576125b9612669565b5b50919050565b6125c9826126c7565b810181811067ffffffffffffffff821117156125e8576125e7612698565b5b80604052505050565b60006125fc82612542565b91507fffffffffffffffffffffffffffffffffffffffffffffffffffffffffffffffff82141561262f5761262e61263a565b5b600182019050919050565b7f4e487b7100000000000000000000000000000000000000000000000000000000600052601160045260246000fd5b7f4e487b7100000000000000000000000000000000000000000000000000000000600052602260045260246000fd5b7f4e487b7100000000000000000000000000000000000000000000000000000000600052604160045260246000fd5b6000601f19601f8301169050919050565b7f4552433732313a2063616c6c6572206973206e6f7420746f6b656e206f776e6560008201527f72206f7220617070726f76656400000000000000000000000000000000000000602082015250565b7f4552433732313a207472616e7366657220746f206e6f6e20455243373231526560008201527f63656976657220696d706c656d656e7465720000000000000000000000000000602082015250565b7f4552433732313a207472616e736665722066726f6d20696e636f72726563742060008201527f6f776e6572000000000000000000000000000000000000000000000000000000602082015250565b7f4552433732313a20746f6b656e20616c7265616479206d696e74656400000000600082015250565b7f4552433732313a207472616e7366657220746f20746865207a65726f2061646460008201527f7265737300000000000000000000000000000000000000000000000000000000602082015250565b7f4552433732313a20617070726f766520746f2063616c6c657200000000000000600082015250565b7f4552433732313a2061646472657373207a65726f206973206e6f74206120766160008201527f6c6964206f776e65720000000000000000000000000000000000000000000000602082015250565b7f45524337323155524953746f726167653a2055524920736574206f66206e6f6e60008201527f6578697374656e7420746f6b656e000000000000000000000000000000000000602082015250565b7f4552433732313a206d696e7420746f20746865207a65726f2061646472657373600082015250565b7f4552433732313a20696e76616c696420746f6b656e2049440000000000000000600082015250565b7f4552433732313a20617070726f76616c20746f2063757272656e74206f776e6560008201527f7200000000000000000000000000000000000000000000000000000000000000602082015250565b7f4552433732313a20617070726f76652063616c6c6572206973206e6f7420746f60008201527f6b656e206f776e6572206f7220617070726f76656420666f7220616c6c000000602082015250565b6129fd816124d8565b8114612a0857600080fd5b50565b612a14816124ea565b8114612a1f57600080fd5b50565b612a2b816124f6565b8114612a3657600080fd5b50565b612a4281612542565b8114612a4d57600080fd5b5056fea2646970667358221220410ea718237cece150fd850b6eb9d8c8b31418d634d98495458660871ce9892f64736f6c63430008040033",
  "linkReferences": {},
  "deployedLinkReferences": {}
}